:020000040800F2
:100000003007002089010008A503000863030008E9
:10001000A103000831020008FF05000800000000ED
:10002000000000000000000000000000C9030008FC
:100030003502000800000000A7030008B50400080E
:10004000A3010008A3010008A3010008A301000800
:10005000A3010008A3010008A3010008A3010008F0
:10006000A3010008A3010008A3010008A3010008E0
:10007000A3010008A3010008A3010008A3010008D0
:10008000A3010008A3010008A3010008A3010008C0
:10009000A3010008A3010008A3010008A3010008B0
:1000A000A3010008A3010008A3010008A3010008A0
:1000B000A3010008A3010008A3010008A301000890
:1000C000A3010008A3010008A3010008A301000880
:1000D000A301000819050008A3010008A3010008F6
:1000E000A3010008A3010008A301000800F002F822
:1000F00000F03AF80AA090E8000C82448344AAF188
:100100000107DA4501D100F02FF8AFF2090EBAE885
:100110000F0013F0010F18BFFB1A43F0010318473B
:100120004005000060050000103A24BF78C878C17F
:10013000FAD8520724BF30C830C144BF04680C60ED
:10014000704700000023002400250026103A28BF35
:1001500078C1FBD8520728BF30C148BF0B60704739
:100160001FB51FBD10B510BD00F033F81146FFF7E5
:10017000F7FF00F05FFA00F051F803B4FFF7F2FF69
:1001800003BC00F03EFA00000948804709480047D8
:10019000FEE7FEE7FEE7FEE7FEE7FEE7FEE7FEE737
:1001A000FEE7FEE704480549054A064B7047000094
:1001B000B9040008ED0000083001002030070020DD
:1001C00030030020300300207047704770477047AD
:1001D0007047754600F028F8AE460500694653465C
:1001E00020F00700854618B020B5FFF7DBFFBDE81B
:1001F00020404FF000064FF000074FF000084FF08E
:10020000000B21F00701AC46ACE8C009ACE8C0091E
:10021000ACE8C009ACE8C0098D4670470446AFF3AE
:1002200000802046FFF7A9FF00487047D00000205B
:1002300000BFFEE770472DE9F04102460025002689
:10024000002000230024002791F803C00CF00F05C4
:1002500091F803C00CF0100CBCF1000F03D091F822
:1002600002C04CEA050591F800C0BCF1000F31D086
:10027000146800202BE04FF0010C0CFA00F3B1F8E9
:1002800000C00CEA03069E4220D183004FF00F0C01
:100290000CFA03F7BC4305FA03FC4CEA040491F89A
:1002A00003C0BCF1280F06D14FF0010C0CFA00FC82
:1002B000C2F814C00AE091F803C0BCF1480F05D1A0
:1002C0004FF0010C0CFA00FCC2F810C0401C0828CA
:1002D000D1D31460B1F800C0BCF1FF0F34DD546815
:1002E00000202EE000F1080C4FF0010808FA0CF392
:1002F000B1F800C00CEA03069E4221D183004FF002
:100300000F0C0CFA03F7BC4305FA03FC4CEA040497
:1003100091F803C0BCF1280F05D100F1080C08FAD0
:100320000CF8C2F8148091F803C0BCF1480F07D153
:1003300000F1080C4FF0010808FA0CF8C2F8108020
:10034000401C0828CED35460BDE8F081024600204E
:1003500093680B400BB1012000E000207047016161
:10036000704700BFFEE7000008B50121102000F033
:100370001BF84FF40050ADF8000010208DF803007A
:1003800003208DF8020069460448FFF754FF4FF43C
:1003900000510248FFF7E3FF08BD000000100140D4
:1003A00000BFFEE77047704729B1064A92690243D1
:1003B000044B9A6104E0034A92698243014B9A61BB
:1003C0007047000000100240704710B500F002F8BE
:1003D00010BD00000CB5002001900090334800686B
:1003E00040F480303149086000BF3048006800F4B4
:1003F000003000900198401C0190009818B90198B5
:10040000B0F5A06FF1D12948006800F4003010B1B8
:100410000120009001E0002000900098012843D1C5
:100420002348006840F01000214908600846006831
:1004300020F0030008600846006840F002000860F1
:100440001A484068194948600846406848600846AC
:10045000406840F4806048600846406820F47C10A2
:1004600048600846406840F4E81048600846006864
:1004700040F08070086000BF0C48006800F0007019
:100480000028F9D00948406820F003000749486077
:100490000846406840F00200486000BF03484068DA
:1004A00000F00C000828F9D10CBD0000001002403B
:1004B000002002407047000010B51348006840F06B
:1004C00001001149086008464068104908400E497B
:1004D0004860084600680E4908400B490860084615
:1004E000006820F4802008600846406820F4FE0080
:1004F00048604FF41F008860FFF767FF4FF000600F
:100500000449086010BD0000001002400000FFF820
:10051000FFFFF6FE08ED00E010B540F225511D4842
:1005200000F03EF810B31B4800F064F8C4B21A485B
:10053000008800F40040C8B91748008800F48040E3
:1005400060B10A2C03D000201349088020E0124833
:10055000008840F400401049088019E00D2C06D1B5
:100560000D48008840F480400B49088010E00A489C
:100570000088C0F30D0009490C5407480088401C4E
:100580000549088008460088C72801DD002008804A
:1005900010BD0000003801400400002008000020C9
:1005A00070B50246002400230025002040F66A169C
:1005B000B14200D100BFC1F3421501F01F03012673
:1005C00006FA03F3012D02D19689334006E0022D8D
:1005D00002D1168A334001E0968A33400C1201267C
:1005E00006FA04F41688344013B10CB1012000E07F
:1005F000002070BD01468888C0F30800704700BF26
:10060000FEE700BF7047000008B501210420FFF796
:10061000CBFE8020ADF8000004208DF803000320FD
:100620008DF8020069460248FFF705FE08BD00008C
:1006300000080140FFF798FEFFF7E6FF0BE080217E
:100640000548FFF783FE18B900200449086002E05E
:10065000012002490860F2E700080140B40122428B
:1006600080060008000000200800000028010008A3
:100670008806000808000020280700004401000840
:08068000000000000000000072
:040000050800018965
:00000001FF
